{
  "contractName": "LotteryContract",
  "abi": [
    {
      "inputs": [
        {
          "internalType": "uint256",
          "name": "defaultLotteryPrice",
          "type": "uint256"
        },
        {
          "internalType": "uint256",
          "name": "winingTimeInSeconds",
          "type": "uint256"
        },
        {
          "internalType": "uint256",
          "name": "defaultMaxWinners",
          "type": "uint256"
        },
        {
          "internalType": "address",
          "name": "nativeToken",
          "type": "address"
        }
      ],
      "stateMutability": "nonpayable",
      "type": "constructor"
    },
    {
      "anonymous": false,
      "inputs": [
        {
          "indexed": false,
          "internalType": "uint256",
          "name": "currentParticipant",
          "type": "uint256"
        },
        {
          "indexed": false,
          "internalType": "uint256",
          "name": "lotteryAmount",
          "type": "uint256"
        },
        {
          "indexed": false,
          "internalType": "address",
          "name": "participant",
          "type": "address"
        }
      ],
      "name": "LotteryBought",
      "type": "event"
    },
    {
      "anonymous": false,
      "inputs": [
        {
          "indexed": true,
          "internalType": "address",
          "name": "previousOwner",
          "type": "address"
        },
        {
          "indexed": true,
          "internalType": "address",
          "name": "newOwner",
          "type": "address"
        }
      ],
      "name": "OwnershipTransferred",
      "type": "event"
    },
    {
      "anonymous": false,
      "inputs": [
        {
          "components": [
            {
              "internalType": "address",
              "name": "participant",
              "type": "address"
            },
            {
              "internalType": "uint256",
              "name": "winningAmout",
              "type": "uint256"
            }
          ],
          "indexed": false,
          "internalType": "struct LotteryContract.Participant[]",
          "name": "winner",
          "type": "tuple[]"
        }
      ],
      "name": "payTO",
      "type": "event"
    },
    {
      "inputs": [],
      "name": "owner",
      "outputs": [
        {
          "internalType": "address",
          "name": "",
          "type": "address"
        }
      ],
      "stateMutability": "view",
      "type": "function",
      "constant": true
    },
    {
      "inputs": [],
      "name": "renounceOwnership",
      "outputs": [],
      "stateMutability": "nonpayable",
      "type": "function"
    },
    {
      "inputs": [
        {
          "internalType": "address",
          "name": "newOwner",
          "type": "address"
        }
      ],
      "name": "transferOwnership",
      "outputs": [],
      "stateMutability": "nonpayable",
      "type": "function"
    },
    {
      "inputs": [
        {
          "internalType": "address",
          "name": "token",
          "type": "address"
        }
      ],
      "name": "buyLottery",
      "outputs": [],
      "stateMutability": "nonpayable",
      "type": "function"
    },
    {
      "inputs": [
        {
          "internalType": "address",
          "name": "token",
          "type": "address"
        }
      ],
      "name": "checkRules",
      "outputs": [],
      "stateMutability": "nonpayable",
      "type": "function"
    },
    {
      "inputs": [
        {
          "internalType": "address",
          "name": "token",
          "type": "address"
        }
      ],
      "name": "getCurrentLotteryNumber",
      "outputs": [
        {
          "internalType": "uint256",
          "name": "",
          "type": "uint256"
        }
      ],
      "stateMutability": "view",
      "type": "function",
      "constant": true
    },
    {
      "inputs": [
        {
          "internalType": "address",
          "name": "token",
          "type": "address"
        },
        {
          "internalType": "uint256",
          "name": "lotteryNumber",
          "type": "uint256"
        }
      ],
      "name": "getDetails",
      "outputs": [
        {
          "internalType": "uint256",
          "name": "totalFund",
          "type": "uint256"
        },
        {
          "internalType": "uint256",
          "name": "totalParticipants",
          "type": "uint256"
        },
        {
          "components": [
            {
              "internalType": "address",
              "name": "participant",
              "type": "address"
            },
            {
              "internalType": "uint256",
              "name": "winningAmout",
              "type": "uint256"
            }
          ],
          "internalType": "struct LotteryContract.Participant[]",
          "name": "participants",
          "type": "tuple[]"
        },
        {
          "internalType": "uint256",
          "name": "lotteryStartedTime",
          "type": "uint256"
        }
      ],
      "stateMutability": "view",
      "type": "function",
      "constant": true
    }
  ],
  "bytecode": "0x60806040523480156200001157600080fd5b50604051620026d8380380620026d8833981810160405281019062000037919062000185565b6000620000496200014f60201b60201c565b9050806000806101000a81548173ffffffffffffffffffffffffffffffffffffffff021916908373ffffffffffffffffffffffffffffffffffffffff1602179055508073ffffffffffffffffffffffffffffffffffffffff16600073ffffffffffffffffffffffffffffffffffffffff167f8be0079c531659141344cd1fd0a4f28419497f9722a3daafe3b4186f6b6457e060405160405180910390a35083600281905550826003819055508160048190555080600560006101000a81548173ffffffffffffffffffffffffffffffffffffffff021916908373ffffffffffffffffffffffffffffffffffffffff16021790555060016006819055505050505062000263565b600033905090565b60008151905062000168816200022f565b92915050565b6000815190506200017f8162000249565b92915050565b600080600080608085870312156200019c57600080fd5b6000620001ac878288016200016e565b9450506020620001bf878288016200016e565b9350506040620001d2878288016200016e565b9250506060620001e58782880162000157565b91505092959194509250565b6000620001fe8262000205565b9050919050565b600073ffffffffffffffffffffffffffffffffffffffff82169050919050565b6000819050919050565b6200023a81620001f1565b81146200024657600080fd5b50565b620002548162000225565b81146200026057600080fd5b50565b61246580620002736000396000f3fe608060405234801561001057600080fd5b506004361061007d5760003560e01c8063a24646531161005b578063a2464653146100da578063bb492245146100f6578063d099a16714610112578063f2fde38b146101455761007d565b8063154b88ef14610082578063715018a6146100b25780638da5cb5b146100bc575b600080fd5b61009c60048036038101906100979190611d0f565b610161565b6040516100a99190612198565b60405180910390f35b6100ba6101aa565b005b6100c4610317565b6040516100d19190612092565b60405180910390f35b6100f460048036038101906100ef9190611d0f565b610340565b005b610110600480360381019061010b9190611d0f565b610662565b005b61012c60048036038101906101279190611d38565b610d5c565b60405161013c94939291906121ea565b60405180910390f35b61015f600480360381019061015a9190611d0f565b610f88565b005b6000600160008373ffffffffffffffffffffffffffffffffffffffff1673ffffffffffffffffffffffffffffffffffffffff168152602001908152602001600020549050919050565b6101b261117a565b73ffffffffffffffffffffffffffffffffffffffff166101d0610317565b73ffffffffffffffffffffffffffffffffffffffff1614610259576040517f08c379a00000000000000000000000000000000000000000000000000000000081526004018080602001828103825260208152602001807f4f776e61626c653a2063616c6c6572206973206e6f7420746865206f776e657281525060200191505060405180910390fd5b600073ffffffffffffffffffffffffffffffffffffffff1660008054906101000a900473ffffffffffffffffffffffffffffffffffffffff1673ffffffffffffffffffffffffffffffffffffffff167f8be0079c531659141344cd1fd0a4f28419497f9722a3daafe3b4186f6b6457e060405160405180910390a360008060006101000a81548173ffffffffffffffffffffffffffffffffffffffff021916908373ffffffffffffffffffffffffffffffffffffffff160217905550565b60008060009054906101000a900473ffffffffffffffffffffffffffffffffffffffff16905090565b6000600160008373ffffffffffffffffffffffffffffffffffffffff1673ffffffffffffffffffffffffffffffffffffffff1681526020019081526020016000205414156103cd5760018060008373ffffffffffffffffffffffffffffffffffffffff1673ffffffffffffffffffffffffffffffffffffffff168152602001908152602001600020819055505b6000600760008373ffffffffffffffffffffffffffffffffffffffff1673ffffffffffffffffffffffffffffffffffffffff1681526020019081526020016000206000016000600160008573ffffffffffffffffffffffffffffffffffffffff1673ffffffffffffffffffffffffffffffffffffffff1681526020019081526020016000205481526020019081526020016000206002015414156105065742600760008373ffffffffffffffffffffffffffffffffffffffff1673ffffffffffffffffffffffffffffffffffffffff1681526020019081526020016000206000016000600160008573ffffffffffffffffffffffffffffffffffffffff1673ffffffffffffffffffffffffffffffffffffffff168152602001908152602001600020548152602001908152602001600020600201819055505b42600354600760008473ffffffffffffffffffffffffffffffffffffffff1673ffffffffffffffffffffffffffffffffffffffff1681526020019081526020016000206000016000600160008673ffffffffffffffffffffffffffffffffffffffff1673ffffffffffffffffffffffffffffffffffffffff16815260200190815260200160002054815260200190815260200160002060020154011115806106485750600454600760008373ffffffffffffffffffffffffffffffffffffffff1673ffffffffffffffffffffffffffffffffffffffff1681526020019081526020016000206000016000600160008573ffffffffffffffffffffffffffffffffffffffff1673ffffffffffffffffffffffffffffffffffffffff1681526020019081526020016000205481526020019081526020016000206001018054905010155b1561065f5761065681611182565b61065e611944565b5b50565b600081905061067082610340565b600060025490508173ffffffffffffffffffffffffffffffffffffffff1663313ce5676040518163ffffffff1660e01b815260040160206040518083038186803b1580156106bd57600080fd5b505afa1580156106d1573d6000803e3d6000fd5b505050506040513d601f19601f820116820180604052508101906106f59190611d9d565b60ff16600a0a81029050600760008473ffffffffffffffffffffffffffffffffffffffff1673ffffffffffffffffffffffffffffffffffffffff1681526020019081526020016000206000016000600160008673ffffffffffffffffffffffffffffffffffffffff1673ffffffffffffffffffffffffffffffffffffffff168152602001908152602001600020548152602001908152602001600020600301600061079e61117a565b73ffffffffffffffffffffffffffffffffffffffff1673ffffffffffffffffffffffffffffffffffffffff16815260200190815260200160002060009054906101000a900460ff1615610826576040517f08c379a000000000000000000000000000000000000000000000000000000000815260040161081d90612178565b60405180910390fd5b60008111610869576040517f08c379a000000000000000000000000000000000000000000000000000000000815260040161086090612158565b60405180910390fd5b8173ffffffffffffffffffffffffffffffffffffffff166323b872dd61088d61117a565b30846040518463ffffffff1660e01b81526004016108ad939291906120ad565b602060405180830381600087803b1580156108c757600080fd5b505af11580156108db573d6000803e3d6000fd5b505050506040513d601f19601f820116820180604052508101906108ff9190611d74565b506109a881600760008673ffffffffffffffffffffffffffffffffffffffff1673ffffffffffffffffffffffffffffffffffffffff1681526020019081526020016000206000016000600160008873ffffffffffffffffffffffffffffffffffffffff1673ffffffffffffffffffffffffffffffffffffffff16815260200190815260200160002054815260200190815260200160002060000154611aa490919063ffffffff16565b600760008573ffffffffffffffffffffffffffffffffffffffff1673ffffffffffffffffffffffffffffffffffffffff1681526020019081526020016000206000016000600160008773ffffffffffffffffffffffffffffffffffffffff1673ffffffffffffffffffffffffffffffffffffffff16815260200190815260200160002054815260200190815260200160002060000181905550600760008473ffffffffffffffffffffffffffffffffffffffff1673ffffffffffffffffffffffffffffffffffffffff1681526020019081526020016000206000016000600160008673ffffffffffffffffffffffffffffffffffffffff1673ffffffffffffffffffffffffffffffffffffffff1681526020019081526020016000205481526020019081526020016000206001016040518060400160405280610ae961117a565b73ffffffffffffffffffffffffffffffffffffffff1681526020016000815250908060018154018082558091505060019003906000526020600020906002020160009091909190915060008201518160000160006101000a81548173ffffffffffffffffffffffffffffffffffffffff021916908373ffffffffffffffffffffffffffffffffffffffff1602179055506020820151816001015550506001600760008573ffffffffffffffffffffffffffffffffffffffff1673ffffffffffffffffffffffffffffffffffffffff1681526020019081526020016000206000016000600160008773ffffffffffffffffffffffffffffffffffffffff1673ffffffffffffffffffffffffffffffffffffffff1681526020019081526020016000205481526020019081526020016000206003016000610c2661117a565b73ffffffffffffffffffffffffffffffffffffffff1673ffffffffffffffffffffffffffffffffffffffff16815260200190815260200160002060006101000a81548160ff0219169083151502179055506000600760008573ffffffffffffffffffffffffffffffffffffffff1673ffffffffffffffffffffffffffffffffffffffff1681526020019081526020016000206000016000600160008773ffffffffffffffffffffffffffffffffffffffff1673ffffffffffffffffffffffffffffffffffffffff1681526020019081526020016000205481526020019081526020016000206001018054905090507fde387a41a2330e7fbde96f0e6b07fea681402849a7598a1d16d43757ce0be76c8183610d3f61117a565b604051610d4e939291906121b3565b60405180910390a150505050565b60008060606000600760008773ffffffffffffffffffffffffffffffffffffffff1673ffffffffffffffffffffffffffffffffffffffff1681526020019081526020016000206000016000868152602001908152602001600020600001549350600760008773ffffffffffffffffffffffffffffffffffffffff1673ffffffffffffffffffffffffffffffffffffffff1681526020019081526020016000206000016000868152602001908152602001600020600101805490509250600760008773ffffffffffffffffffffffffffffffffffffffff1673ffffffffffffffffffffffffffffffffffffffff1681526020019081526020016000206000016000868152602001908152602001600020600101805480602002602001604051908101604052809291908181526020016000905b82821015610f2057838290600052602060002090600202016040518060400160405290816000820160009054906101000a900473ffffffffffffffffffffffffffffffffffffffff1673ffffffffffffffffffffffffffffffffffffffff1673ffffffffffffffffffffffffffffffffffffffff16815260200160018201548152505081526020019060010190610e8e565b505050509150600760008773ffffffffffffffffffffffffffffffffffffffff1673ffffffffffffffffffffffffffffffffffffffff168152602001908152602001600020600001600086815260200190815260200160002060020154905092959194509250565b610f9061117a565b73ffffffffffffffffffffffffffffffffffffffff16610fae610317565b73ffffffffffffffffffffffffffffffffffffffff1614611037576040517f08c379a00000000000000000000000000000000000000000000000000000000081526004018080602001828103825260208152602001807f4f776e61626c653a2063616c6c6572206973206e6f7420746865206f776e657281525060200191505060405180910390fd5b600073ffffffffffffffffffffffffffffffffffffffff168173ffffffffffffffffffffffffffffffffffffffff1614156110bd576040517f08c379a000000000000000000000000000000000000000000000000000000000815260040180806020018281038252602681526020018061240a6026913960400191505060405180910390fd5b8073ffffffffffffffffffffffffffffffffffffffff1660008054906101000a900473ffffffffffffffffffffffffffffffffffffffff1673ffffffffffffffffffffffffffffffffffffffff167f8be0079c531659141344cd1fd0a4f28419497f9722a3daafe3b4186f6b6457e060405160405180910390a3806000806101000a81548173ffffffffffffffffffffffffffffffffffffffff021916908373ffffffffffffffffffffffffffffffffffffffff16021790555050565b600033905090565b6000600760008373ffffffffffffffffffffffffffffffffffffffff1673ffffffffffffffffffffffffffffffffffffffff1681526020019081526020016000206000016000600160008573ffffffffffffffffffffffffffffffffffffffff1673ffffffffffffffffffffffffffffffffffffffff168152602001908152602001600020548152602001908152602001600020600101805480602002602001604051908101604052809291908181526020016000905b828210156112cb57838290600052602060002090600202016040518060400160405290816000820160009054906101000a900473ffffffffffffffffffffffffffffffffffffffff1673ffffffffffffffffffffffffffffffffffffffff1673ffffffffffffffffffffffffffffffffffffffff16815260200160018201548152505081526020019060010190611239565b5050505090506000815190506000600760008573ffffffffffffffffffffffffffffffffffffffff1673ffffffffffffffffffffffffffffffffffffffff1681526020019081526020016000206000016000600160008773ffffffffffffffffffffffffffffffffffffffff1673ffffffffffffffffffffffffffffffffffffffff1681526020019081526020016000205481526020019081526020016000206000015490506000849050600183141561156257600084600185038151811061139057fe5b60200260200101516000015190508173ffffffffffffffffffffffffffffffffffffffff1663a9059cbb82856040518363ffffffff1660e01b81526004016113d992919061210d565b602060405180830381600087803b1580156113f357600080fd5b505af1158015611407573d6000803e3d6000fd5b505050506040513d601f19601f8201168201806040525081019061142b9190611d74565b5060405180604001604052808273ffffffffffffffffffffffffffffffffffffffff16815260200184815250600760008873ffffffffffffffffffffffffffffffffffffffff1673ffffffffffffffffffffffffffffffffffffffff1681526020019081526020016000206000016000600160008a73ffffffffffffffffffffffffffffffffffffffff1673ffffffffffffffffffffffffffffffffffffffff16815260200190815260200160002054815260200190815260200160002060010160018603815481106114fa57fe5b906000526020600020906002020160008201518160000160006101000a81548173ffffffffffffffffffffffffffffffffffffffff021916908373ffffffffffffffffffffffffffffffffffffffff1602179055506020820151816001015590505060009250505b5b6000831180156115735750600082115b156117c15760006001830161158787611b2c565b8161158e57fe5b0690506115a48184611bfb90919063ffffffff16565b92506000846115b288611b2c565b816115b957fe5b06905060008682815181106115ca57fe5b60200260200101516000015190508373ffffffffffffffffffffffffffffffffffffffff1663a9059cbb82856040518363ffffffff1660e01b815260040161161392919061210d565b602060405180830381600087803b15801561162d57600080fd5b505af1158015611641573d6000803e3d6000fd5b505050506040513d601f19601f820116820180604052508101906116659190611d74565b5060405180604001604052808273ffffffffffffffffffffffffffffffffffffffff16815260200184815250600760008a73ffffffffffffffffffffffffffffffffffffffff1673ffffffffffffffffffffffffffffffffffffffff1681526020019081526020016000206000016000600160008c73ffffffffffffffffffffffffffffffffffffffff1673ffffffffffffffffffffffffffffffffffffffff168152602001908152602001600020548152602001908152602001600020600101600188038154811061173457fe5b906000526020600020906002020160008201518160000160006101000a81548173ffffffffffffffffffffffffffffffffffffffff021916908373ffffffffffffffffffffffffffffffffffffffff160217905550602082015181600101559050506117aa600187611bfb90919063ffffffff16565b95506117b7828888611c7e565b9650505050611563565b7fadf8dc3b240d3fac32a35e70bce0214f2e2e6f055b84366aba0e474b645e9c17600760008773ffffffffffffffffffffffffffffffffffffffff1673ffffffffffffffffffffffffffffffffffffffff1681526020019081526020016000206000016000600160008973ffffffffffffffffffffffffffffffffffffffff1673ffffffffffffffffffffffffffffffffffffffff1681526020019081526020016000205481526020019081526020016000206001016040516118849190612136565b60405180910390a16118de60018060008873ffffffffffffffffffffffffffffffffffffffff1673ffffffffffffffffffffffffffffffffffffffff16815260200190815260200160002054611aa490919063ffffffff16565b600160008773ffffffffffffffffffffffffffffffffffffffff1673ffffffffffffffffffffffffffffffffffffffff168152602001908152602001600020819055506119376001600654611aa490919063ffffffff16565b6006819055505050505050565b6000600560009054906101000a900473ffffffffffffffffffffffffffffffffffffffff16905060008173ffffffffffffffffffffffffffffffffffffffff1663313ce5676040518163ffffffff1660e01b815260040160206040518083038186803b1580156119b357600080fd5b505afa1580156119c7573d6000803e3d6000fd5b505050506040513d601f19601f820116820180604052508101906119eb9190611d9d565b60ff166101f40261ffff16905060006203345060065481611a0857fe5b0490508273ffffffffffffffffffffffffffffffffffffffff1663a9059cbb338360ff1685901c6040518363ffffffff1660e01b8152600401611a4c9291906120e4565b602060405180830381600087803b158015611a6657600080fd5b505af1158015611a7a573d6000803e3d6000fd5b505050506040513d601f19601f82011682018060405250810190611a9e9190611d74565b50505050565b600080828401905083811015611b22576040517f08c379a000000000000000000000000000000000000000000000000000000000815260040180806020018281038252601b8152602001807f536166654d6174683a206164646974696f6e206f766572666c6f77000000000081525060200191505060405180910390fd5b8091505092915050565b60004442600760008573ffffffffffffffffffffffffffffffffffffffff1673ffffffffffffffffffffffffffffffffffffffff1681526020019081526020016000206000016000600160008773ffffffffffffffffffffffffffffffffffffffff1673ffffffffffffffffffffffffffffffffffffffff16815260200190815260200160002054815260200190815260200160002060010180549050604051602001611bdb93929190612055565b6040516020818303038152906040528051906020012060001c9050919050565b600082821115611c73576040517f08c379a000000000000000000000000000000000000000000000000000000000815260040180806020018281038252601e8152602001807f536166654d6174683a207375627472616374696f6e206f766572666c6f77000081525060200191505060405180910390fd5b818303905092915050565b60606000839050808381518110611c9157fe5b6020026020010151818681518110611ca557fe5b6020026020010181905250809150509392505050565b600081359050611cca816123ad565b92915050565b600081519050611cdf816123c4565b92915050565b600081359050611cf4816123db565b92915050565b600081519050611d09816123f2565b92915050565b600060208284031215611d2157600080fd5b6000611d2f84828501611cbb565b91505092915050565b60008060408385031215611d4b57600080fd5b6000611d5985828601611cbb565b9250506020611d6a85828601611ce5565b9150509250929050565b600060208284031215611d8657600080fd5b6000611d9484828501611cd0565b91505092915050565b600060208284031215611daf57600080fd5b6000611dbd84828501611cfa565b91505092915050565b6000611dd28383611faa565b60408301905092915050565b6000611dea8383611fd9565b60408301905092915050565b611dff8161232c565b82525050565b611e0e816122d7565b82525050565b611e1d816122d7565b82525050565b6000611e2e8261225b565b611e38818561228b565b9350611e4383612236565b8060005b83811015611e74578151611e5b8882611dc6565b9750611e6683612271565b925050600181019050611e47565b5085935050505092915050565b6000611e8c82612266565b611e96818561228b565b9350611ea183612246565b8060005b83811015611ed15781611eb88882611dde565b9750611ec38361227e565b925050600181019050611ea5565b5085935050505092915050565b6000611eeb60278361229c565b91507f6c6f747465727920616d6f756e74206d7573742062652067726174657220746860008301527f656e207a65726f000000000000000000000000000000000000000000000000006020830152604082019050919050565b6000611f51602d8361229c565b91507f757365722068617320616c7265616479207061727469636970616e746564206960008301527f6e2063757272656e74206c6f74000000000000000000000000000000000000006020830152604082019050919050565b604082016000820151611fc06000850182611e05565b506020820151611fd36020850182612020565b50505050565b604082016000808301549050611fee81612362565b611ffb6000860182611e05565b506001830154905061200c8161237c565b6120196020860182612020565b5050505050565b61202981612315565b82525050565b61203881612315565b82525050565b61204f61204a82612315565b612396565b82525050565b6000612061828661203e565b602082019150612071828561203e565b602082019150612081828461203e565b602082019150819050949350505050565b60006020820190506120a76000830184611e14565b92915050565b60006060820190506120c26000830186611df6565b6120cf6020830185611e14565b6120dc604083018461202f565b949350505050565b60006040820190506120f96000830185611df6565b612106602083018461202f565b9392505050565b60006040820190506121226000830185611e14565b61212f602083018461202f565b9392505050565b600060208201905081810360008301526121508184611e81565b905092915050565b6000602082019050818103600083015261217181611ede565b9050919050565b6000602082019050818103600083015261219181611f44565b9050919050565b60006020820190506121ad600083018461202f565b92915050565b60006060820190506121c8600083018661202f565b6121d5602083018561202f565b6121e26040830184611df6565b949350505050565b60006080820190506121ff600083018761202f565b61220c602083018661202f565b818103604083015261221e8185611e23565b905061222d606083018461202f565b95945050505050565b6000819050602082019050919050565b60008190508160005260206000209050919050565b600081519050919050565b600081549050919050565b6000602082019050919050565b6000600282019050919050565b600082825260208201905092915050565b600082825260208201905092915050565b600073ffffffffffffffffffffffffffffffffffffffff82169050919050565b6000819050919050565b60006122e2826122f5565b9050919050565b60008115159050919050565b600073ffffffffffffffffffffffffffffffffffffffff82169050919050565b6000819050919050565b600060ff82169050919050565b60006123378261233e565b9050919050565b600061234982612350565b9050919050565b600061235b826122f5565b9050919050565b6000612375612370836123a0565b6122ad565b9050919050565b600061238f61238a836123a0565b6122cd565b9050919050565b6000819050919050565b60008160001c9050919050565b6123b6816122d7565b81146123c157600080fd5b50565b6123cd816122e9565b81146123d857600080fd5b50565b6123e481612315565b81146123ef57600080fd5b50565b6123fb8161231f565b811461240657600080fd5b5056fe4f776e61626c653a206e6577206f776e657220697320746865207a65726f2061646472657373a2646970667358221220033b819ef43bc35b3c4acabfe7ddc1f93a7317dc3106eb1378e6019769f8c85c64736f6c63430007060033",
  "immutableReferences": {},
  "source": "// SPDX-License-Identifier: MIT\npragma solidity >=0.6.0 <=0.8.0;\nimport \"@openzeppelin/contracts/token/ERC20/ERC20.sol\";\nimport \"@openzeppelin/contracts/math/SafeMath.sol\";\nimport \"@openzeppelin/contracts/utils/Context.sol\";\nimport \"@openzeppelin/contracts/access/Ownable.sol\";\npragma experimental ABIEncoderV2;\n\n//Rules:\n// Every 10 min lottery will be announced\n// Minimum ether value will be used for lottery\n// 2% will go to contract to pay gas fees.\n// 3% will go to social cause.\n// with every annonced lottery, participant will get native token\n\ncontract LotteryContract is Context, Ownable {\n    using SafeMath for uint256;\n    mapping(address => uint256) private _currentLotNumber;\n    uint256 private _defaultLotteryPrice;\n    uint256 private _winingTimeInSeconds;\n    uint256 private _defaultMaxWinners;\n    address private _nativeToken;\n    uint256 private _totalLotteries;\n    event LotteryBought(\n        uint256 currentParticipant,\n        uint256 lotteryAmount,\n        address participant\n    );\n    event payTO(Participant[] winner);\n\n    constructor(\n        uint256 defaultLotteryPrice,\n        uint256 winingTimeInSeconds,\n        uint256 defaultMaxWinners,\n        address nativeToken\n    ) {\n        _defaultLotteryPrice = defaultLotteryPrice;\n        _winingTimeInSeconds = winingTimeInSeconds;\n        _defaultMaxWinners = defaultMaxWinners;\n        _nativeToken = nativeToken;\n        _totalLotteries = 1;\n    }\n\n    struct Participant {\n        address participant;\n        uint256 winningAmout;\n    }\n    struct LotteryLot {\n        uint256 totalFund;\n        Participant[] participants;\n        uint256 lotteryStartedTime;\n        mapping(address => bool) participated;\n    }\n\n    struct LotterieForSpecificToken {\n        mapping(uint256 => LotteryLot) lots;\n    }\n    mapping(address => LotterieForSpecificToken) private lotteryForToken;\n\n    function buyLottery(address token) external {\n        ERC20 tokenContract = ERC20(token);\n        checkRules(token);\n        uint256 lotteryAmount = _defaultLotteryPrice;\n        lotteryAmount = lotteryAmount * (10**tokenContract.decimals());\n        require(\n            !lotteryForToken[token].lots[_currentLotNumber[token]].participated[\n                _msgSender()\n            ],\n            \"user has already participanted in current lot\"\n        );\n        require(lotteryAmount > 0, \"lottery amount must be grater then zero\");\n        tokenContract.transferFrom(_msgSender(), address(this), lotteryAmount);\n\n        lotteryForToken[token].lots[_currentLotNumber[token]]\n            .totalFund = lotteryForToken[token].lots[_currentLotNumber[token]]\n            .totalFund\n            .add(lotteryAmount);\n\n        lotteryForToken[token].lots[_currentLotNumber[token]].participants.push(\n            Participant(_msgSender(), 0)\n        );\n        lotteryForToken[token].lots[_currentLotNumber[token]].participated[\n            _msgSender()\n        ] = true;\n        uint256 participantsNumber =\n            lotteryForToken[token].lots[_currentLotNumber[token]]\n                .participants\n                .length;\n        emit LotteryBought(participantsNumber, lotteryAmount, _msgSender());\n    }\n\n    function checkRules(address token) public {\n        if (_currentLotNumber[token] == 0) {\n            _currentLotNumber[token] = 1; // set initial lottery number if its first lot for token\n        }\n        if (\n            lotteryForToken[token].lots[_currentLotNumber[token]]\n                .lotteryStartedTime == 0\n        ) {\n            lotteryForToken[token].lots[_currentLotNumber[token]]\n                .lotteryStartedTime = block.timestamp; // set initial lottery time if its first lot for token\n        }\n\n        // lottery result rule\n        if (\n            lotteryForToken[token].lots[_currentLotNumber[token]]\n                .lotteryStartedTime +\n                _winingTimeInSeconds <=\n            block.timestamp ||\n            lotteryForToken[token].lots[_currentLotNumber[token]]\n                .participants\n                .length >=\n            _defaultMaxWinners\n        ) {\n            pickWinner(token);\n            returnNativeTokenForGasFeesToLotteryAnnouncer();\n        }\n    }\n\n    function random(address token) private view returns (uint256) {\n        return\n            uint256(\n                keccak256(\n                    abi.encodePacked(\n                        block.difficulty,\n                        block.timestamp,\n                        lotteryForToken[token].lots[_currentLotNumber[token]]\n                            .participants\n                            .length\n                    )\n                )\n            );\n    }\n\n    // Participant[] _participants;\n\n    function pickWinner(address token) private {\n        Participant[] memory _participants =\n            lotteryForToken[token].lots[_currentLotNumber[token]].participants;\n        // Participant[] memory _afterResult;\n        uint256 participantsNumber = _participants.length;\n        uint256 totalRemainFund =\n            lotteryForToken[token].lots[_currentLotNumber[token]].totalFund;\n        ERC20 tokenContract = ERC20(token);\n        if (participantsNumber == 1) {\n            // if only one participant refund all amount\n            address currentWinnersAddress =\n                _participants[participantsNumber - 1].participant;\n            tokenContract.transfer(currentWinnersAddress, totalRemainFund);\n            lotteryForToken[token].lots[_currentLotNumber[token]].participants[\n                participantsNumber - 1\n            ] = Participant(currentWinnersAddress, totalRemainFund);\n            totalRemainFund = 0;\n        }\n        while (participantsNumber > 0 && totalRemainFund > 0) {\n            uint256 winingAmountForCurrentParticipant =\n                random(token) % (totalRemainFund + 1);\n            totalRemainFund = totalRemainFund.sub(\n                winingAmountForCurrentParticipant\n            );\n            uint256 randomWinner = random(token) % participantsNumber;\n            address currentWinnersAddress =\n                _participants[randomWinner].participant;\n            tokenContract.transfer(\n                currentWinnersAddress,\n                winingAmountForCurrentParticipant\n            );\n            lotteryForToken[token].lots[_currentLotNumber[token]].participants[\n                participantsNumber - 1\n            ] = Participant(\n                currentWinnersAddress,\n                winingAmountForCurrentParticipant\n            );\n            participantsNumber = participantsNumber.sub(1);\n            _participants = removeWinner(\n                randomWinner,\n                _participants,\n                participantsNumber\n            );\n        }\n\n        emit payTO(\n            lotteryForToken[token].lots[_currentLotNumber[token]].participants\n        );\n        _currentLotNumber[token] = _currentLotNumber[token].add(1);\n        _totalLotteries = _totalLotteries.add(1);\n    }\n\n    function removeWinner(\n        uint256 winner,\n        Participant[] memory _participants,\n        uint256 swapWith\n    ) private pure returns (Participant[] memory) {\n        Participant[] memory swap = _participants;\n        swap[winner] = swap[swapWith];\n        return swap;\n    }\n\n    function getCurrentLotteryNumber(address token)\n        external\n        view\n        returns (uint256)\n    {\n        return _currentLotNumber[token];\n    }\n\n    function getDetails(address token, uint256 lotteryNumber)\n        external\n        view\n        returns (\n            uint256 totalFund,\n            uint256 totalParticipants,\n            Participant[] memory participants,\n            uint256 lotteryStartedTime\n        )\n    {\n        totalFund = lotteryForToken[token].lots[lotteryNumber].totalFund;\n        totalParticipants = lotteryForToken[token].lots[lotteryNumber]\n            .participants\n            .length;\n        participants = lotteryForToken[token].lots[lotteryNumber].participants;\n        lotteryStartedTime = lotteryForToken[token].lots[lotteryNumber]\n            .lotteryStartedTime;\n    }\n\n    function returnNativeTokenForGasFeesToLotteryAnnouncer() private {\n        ERC20 tokenContract = ERC20(_nativeToken);\n        uint256 reward = 500 * tokenContract.decimals();\n        uint8 halving = uint8(_totalLotteries / 210000);\n        tokenContract.transfer(msg.sender, reward >> halving);\n    }\n}\n\n//TODO:\n//user can buy lottery by sending ether\n// lottery announcer will get gas fees back.\n",
  "sourcePath": "/Users/manan/mind place/smart contracts/CrossBlockChainSwap/contracts/LotteryContract.sol",
  "compiler": {
    "name": "solc",
    "version": "0.7.6+commit.7338295f.Emscripten.clang"
  },
  "schemaVersion": "3.3.4",
  "updatedAt": "2021-03-28T20:41:42.893Z",
  "networkType": "ethereum",
  "devdoc": {
    "kind": "dev",
    "methods": {
      "owner()": {
        "details": "Returns the address of the current owner."
      },
      "renounceOwnership()": {
        "details": "Leaves the contract without owner. It will not be possible to call `onlyOwner` functions anymore. Can only be called by the current owner. NOTE: Renouncing ownership will leave the contract without an owner, thereby removing any functionality that is only available to the owner."
      },
      "transferOwnership(address)": {
        "details": "Transfers ownership of the contract to a new account (`newOwner`). Can only be called by the current owner."
      }
    },
    "version": 1
  },
  "userdoc": {
    "kind": "user",
    "methods": {},
    "version": 1
  }
}